{
  "_format": "hh-sol-artifact-1",
  "contractName": "CrowdHive",
  "sourceName": "contracts/CrowdHive.sol",
  "abi": [
    {
      "anonymous": false,
      "inputs": [
        {
          "indexed": false,
          "internalType": "uint256",
          "name": "id",
          "type": "uint256"
        },
        {
          "indexed": true,
          "internalType": "address",
          "name": "contributor",
          "type": "address"
        },
        {
          "indexed": false,
          "internalType": "uint256",
          "name": "amount",
          "type": "uint256"
        }
      ],
      "name": "ContributionReceived",
      "type": "event"
    },
    {
      "inputs": [],
      "name": "campaignCount",
      "outputs": [
        {
          "internalType": "uint256",
          "name": "",
          "type": "uint256"
        }
      ],
      "stateMutability": "view",
      "type": "function"
    },
    {
      "inputs": [
        {
          "internalType": "uint256",
          "name": "",
          "type": "uint256"
        }
      ],
      "name": "campaigns",
      "outputs": [
        {
          "internalType": "address",
          "name": "creator",
          "type": "address"
        },
        {
          "internalType": "string",
          "name": "title",
          "type": "string"
        },
        {
          "internalType": "string",
          "name": "description",
          "type": "string"
        },
        {
          "internalType": "uint256",
          "name": "goal",
          "type": "uint256"
        },
        {
          "internalType": "uint256",
          "name": "deadline",
          "type": "uint256"
        },
        {
          "internalType": "uint256",
          "name": "amountCollected",
          "type": "uint256"
        },
        {
          "internalType": "bool",
          "name": "withdrawn",
          "type": "bool"
        }
      ],
      "stateMutability": "view",
      "type": "function"
    },
    {
      "inputs": [
        {
          "internalType": "uint256",
          "name": "_id",
          "type": "uint256"
        }
      ],
      "name": "contribute",
      "outputs": [],
      "stateMutability": "payable",
      "type": "function"
    },
    {
      "inputs": [
        {
          "internalType": "uint256",
          "name": "",
          "type": "uint256"
        },
        {
          "internalType": "address",
          "name": "",
          "type": "address"
        }
      ],
      "name": "contributons",
      "outputs": [
        {
          "internalType": "uint256",
          "name": "",
          "type": "uint256"
        }
      ],
      "stateMutability": "view",
      "type": "function"
    },
    {
      "inputs": [
        {
          "internalType": "string",
          "name": "_title",
          "type": "string"
        },
        {
          "internalType": "string",
          "name": "_description",
          "type": "string"
        },
        {
          "internalType": "uint256",
          "name": "_goal",
          "type": "uint256"
        },
        {
          "internalType": "uint256",
          "name": "_duration",
          "type": "uint256"
        }
      ],
      "name": "createCampaign",
      "outputs": [],
      "stateMutability": "nonpayable",
      "type": "function"
    },
    {
      "inputs": [
        {
          "internalType": "uint256",
          "name": "_id",
          "type": "uint256"
        }
      ],
      "name": "getCampaign",
      "outputs": [
        {
          "internalType": "address",
          "name": "creator",
          "type": "address"
        },
        {
          "internalType": "string",
          "name": "title",
          "type": "string"
        },
        {
          "internalType": "string",
          "name": "description",
          "type": "string"
        },
        {
          "internalType": "uint256",
          "name": "goal",
          "type": "uint256"
        },
        {
          "internalType": "uint256",
          "name": "deadline",
          "type": "uint256"
        },
        {
          "internalType": "uint256",
          "name": "amountCollected",
          "type": "uint256"
        },
        {
          "internalType": "bool",
          "name": "withdrawn",
          "type": "bool"
        }
      ],
      "stateMutability": "view",
      "type": "function"
    },
    {
      "inputs": [],
      "name": "getCampaignCount",
      "outputs": [
        {
          "internalType": "uint256",
          "name": "",
          "type": "uint256"
        }
      ],
      "stateMutability": "view",
      "type": "function"
    },
    {
      "inputs": [
        {
          "internalType": "address",
          "name": "_creator",
          "type": "address"
        }
      ],
      "name": "getCampaignsByCreator",
      "outputs": [
        {
          "internalType": "uint256[]",
          "name": "",
          "type": "uint256[]"
        }
      ],
      "stateMutability": "view",
      "type": "function"
    },
    {
      "inputs": [
        {
          "internalType": "uint256",
          "name": "_id",
          "type": "uint256"
        }
      ],
      "name": "withdrawFunds",
      "outputs": [],
      "stateMutability": "nonpayable",
      "type": "function"
    }
  ],
  "bytecode": "0x6080604052348015600f57600080fd5b506119048061001f6000396000f3fe6080604052600436106100865760003560e01c80636caa9218116100595780636caa9218146101775780637274e30d146101a2578063a318f269146101cd578063c1cbbca7146101f6578063d5b8d84a1461021257610086565b80630f6eabd71461008b578063141961bc146100c8578063155dd5ee1461010b5780635598f8cc14610134575b600080fd5b34801561009757600080fd5b506100b260048036038101906100ad9190610d04565b61024f565b6040516100bf9190610d53565b60405180910390f35b3480156100d457600080fd5b506100ef60048036038101906100ea9190610d6e565b610274565b6040516101029796959493929190610e55565b60405180910390f35b34801561011757600080fd5b50610132600480360381019061012d9190610d6e565b6103f3565b005b34801561014057600080fd5b5061015b60048036038101906101569190610d6e565b6105cb565b60405161016e9796959493929190610e55565b60405180910390f35b34801561018357600080fd5b5061018c61076c565b6040516101999190610d53565b60405180910390f35b3480156101ae57600080fd5b506101b7610776565b6040516101c49190610d53565b60405180910390f35b3480156101d957600080fd5b506101f460048036038101906101ef9190611007565b61077c565b005b610210600480360381019061020b9190610d6e565b610947565b005b34801561021e57600080fd5b50610239600480360381019061023491906110a6565b610abc565b6040516102469190611191565b60405180910390f35b6001602052816000526040600020602052806000526040600020600091509150505481565b60006020528060005260406000206000915090508060000160009054906101000a900473ffffffffffffffffffffffffffffffffffffffff16908060010180546102bd906111e2565b80601f01602080910402602001604051908101604052809291908181526020018280546102e9906111e2565b80156103365780601f1061030b57610100808354040283529160200191610336565b820191906000526020600020905b81548152906001019060200180831161031957829003601f168201915b50505050509080600201805461034b906111e2565b80601f0160208091040260200160405190810160405280929190818152602001828054610377906111e2565b80156103c45780601f10610399576101008083540402835291602001916103c4565b820191906000526020600020905b8154815290600101906020018083116103a757829003601f168201915b5050505050908060030154908060040154908060050154908060060160009054906101000a900460ff16905087565b600080600083815260200190815260200160002090508060000160009054906101000a900473ffffffffffffffffffffffffffffffffffffffff1673ffffffffffffffffffffffffffffffffffffffff163373ffffffffffffffffffffffffffffffffffffffff161461049b576040517f08c379a00000000000000000000000000000000000000000000000000000000081526004016104929061125f565b60405180910390fd5b60008160050154116104e2576040517f08c379a00000000000000000000000000000000000000000000000000000000081526004016104d9906112cb565b60405180910390fd5b6000816005015490506000826005018190555060008260000160009054906101000a900473ffffffffffffffffffffffffffffffffffffffff1673ffffffffffffffffffffffffffffffffffffffff168260405161053f9061131c565b60006040518083038185875af1925050503d806000811461057c576040519150601f19603f3d011682016040523d82523d6000602084013e610581565b606091505b50509050806105c5576040517f08c379a00000000000000000000000000000000000000000000000000000000081526004016105bc9061137d565b60405180910390fd5b50505050565b600060608060008060008060008060008a815260200190815260200160002090508060000160009054906101000a900473ffffffffffffffffffffffffffffffffffffffff1681600101826002018360030154846004015485600501548660060160009054906101000a900460ff16858054610646906111e2565b80601f0160208091040260200160405190810160405280929190818152602001828054610672906111e2565b80156106bf5780601f10610694576101008083540402835291602001916106bf565b820191906000526020600020905b8154815290600101906020018083116106a257829003601f168201915b505050505095508480546106d2906111e2565b80601f01602080910402602001604051908101604052809291908181526020018280546106fe906111e2565b801561074b5780601f106107205761010080835404028352916020019161074b565b820191906000526020600020905b81548152906001019060200180831161072e57829003601f168201915b50505050509450975097509750975097509750975050919395979092949650565b6000600254905090565b60025481565b600082116107bf576040517f08c379a00000000000000000000000000000000000000000000000000000000081526004016107b6906113e9565b60405180910390fd5b60008111610802576040517f08c379a00000000000000000000000000000000000000000000000000000000081526004016107f990611455565b60405180910390fd5b600060014261081191906114a4565b90506040518060e001604052803373ffffffffffffffffffffffffffffffffffffffff1681526020018681526020018581526020018481526020018281526020016000815260200160001515815250600080600254815260200190815260200160002060008201518160000160006101000a81548173ffffffffffffffffffffffffffffffffffffffff021916908373ffffffffffffffffffffffffffffffffffffffff16021790555060208201518160010190816108d09190611684565b5060408201518160020190816108e69190611684565b50606082015181600301556080820151816004015560a0820151816005015560c08201518160060160006101000a81548160ff0219169083151502179055509050506002600081548092919061093b90611756565b91905055505050505050565b60008060008381526020019081526020016000209050806004015442106109a3576040517f08c379a000000000000000000000000000000000000000000000000000000000815260040161099a906117ea565b60405180910390fd5b600034116109e6576040517f08c379a00000000000000000000000000000000000000000000000000000000081526004016109dd90611856565b60405180910390fd5b348160050160008282546109fa91906114a4565b92505081905550346001600084815260200190815260200160002060003373ffffffffffffffffffffffffffffffffffffffff1673ffffffffffffffffffffffffffffffffffffffff1681526020019081526020016000206000828254610a6191906114a4565b925050819055503373ffffffffffffffffffffffffffffffffffffffff167f865c884d49c8cecaef108efb20f7d282f26c0f9b0d24dd48e5592d4e02ec658d8334604051610ab0929190611876565b60405180910390a25050565b60606000805b600254811015610b50578373ffffffffffffffffffffffffffffffffffffffff1660008083815260200190815260200160002060000160009054906101000a900473ffffffffffffffffffffffffffffffffffffffff1673ffffffffffffffffffffffffffffffffffffffff1603610b43578180610b3f90611756565b9250505b8080600101915050610ac2565b5060008167ffffffffffffffff811115610b6d57610b6c610edc565b5b604051908082528060200260200182016040528015610b9b5781602001602082028036833780820191505090505b5090506000805b600254811015610c50578573ffffffffffffffffffffffffffffffffffffffff1660008083815260200190815260200160002060000160009054906101000a900473ffffffffffffffffffffffffffffffffffffffff1673ffffffffffffffffffffffffffffffffffffffff1603610c435780838381518110610c2857610c2761189f565b5b6020026020010181815250508180610c3f90611756565b9250505b8080600101915050610ba2565b50819350505050919050565b6000604051905090565b600080fd5b600080fd5b6000819050919050565b610c8381610c70565b8114610c8e57600080fd5b50565b600081359050610ca081610c7a565b92915050565b600073ffffffffffffffffffffffffffffffffffffffff82169050919050565b6000610cd182610ca6565b9050919050565b610ce181610cc6565b8114610cec57600080fd5b50565b600081359050610cfe81610cd8565b92915050565b60008060408385031215610d1b57610d1a610c66565b5b6000610d2985828601610c91565b9250506020610d3a85828601610cef565b9150509250929050565b610d4d81610c70565b82525050565b6000602082019050610d686000830184610d44565b92915050565b600060208284031215610d8457610d83610c66565b5b6000610d9284828501610c91565b91505092915050565b610da481610cc6565b82525050565b600081519050919050565b600082825260208201905092915050565b60005b83811015610de4578082015181840152602081019050610dc9565b60008484015250505050565b6000601f19601f8301169050919050565b6000610e0c82610daa565b610e168185610db5565b9350610e26818560208601610dc6565b610e2f81610df0565b840191505092915050565b60008115159050919050565b610e4f81610e3a565b82525050565b600060e082019050610e6a600083018a610d9b565b8181036020830152610e7c8189610e01565b90508181036040830152610e908188610e01565b9050610e9f6060830187610d44565b610eac6080830186610d44565b610eb960a0830185610d44565b610ec660c0830184610e46565b98975050505050505050565b600080fd5b600080fd5b7f4e487b7100000000000000000000000000000000000000000000000000000000600052604160045260246000fd5b610f1482610df0565b810181811067ffffffffffffffff82111715610f3357610f32610edc565b5b80604052505050565b6000610f46610c5c565b9050610f528282610f0b565b919050565b600067ffffffffffffffff821115610f7257610f71610edc565b5b610f7b82610df0565b9050602081019050919050565b82818337600083830152505050565b6000610faa610fa584610f57565b610f3c565b905082815260208101848484011115610fc657610fc5610ed7565b5b610fd1848285610f88565b509392505050565b600082601f830112610fee57610fed610ed2565b5b8135610ffe848260208601610f97565b91505092915050565b6000806000806080858703121561102157611020610c66565b5b600085013567ffffffffffffffff81111561103f5761103e610c6b565b5b61104b87828801610fd9565b945050602085013567ffffffffffffffff81111561106c5761106b610c6b565b5b61107887828801610fd9565b935050604061108987828801610c91565b925050606061109a87828801610c91565b91505092959194509250565b6000602082840312156110bc576110bb610c66565b5b60006110ca84828501610cef565b91505092915050565b600081519050919050565b600082825260208201905092915050565b6000819050602082019050919050565b61110881610c70565b82525050565b600061111a83836110ff565b60208301905092915050565b6000602082019050919050565b600061113e826110d3565b61114881856110de565b9350611153836110ef565b8060005b8381101561118457815161116b888261110e565b975061117683611126565b925050600181019050611157565b5085935050505092915050565b600060208201905081810360008301526111ab8184611133565b905092915050565b7f4e487b7100000000000000000000000000000000000000000000000000000000600052602260045260246000fd5b600060028204905060018216806111fa57607f821691505b60208210810361120d5761120c6111b3565b5b50919050565b7f4f6e6c792063726561746f722063616e20776974686472617700000000000000600082015250565b6000611249601983610db5565b915061125482611213565b602082019050919050565b600060208201905081810360008301526112788161123c565b9050919050565b7f4e6f2066756e647320617661696c61626c650000000000000000000000000000600082015250565b60006112b5601283610db5565b91506112c08261127f565b602082019050919050565b600060208201905081810360008301526112e4816112a8565b9050919050565b600081905092915050565b50565b60006113066000836112eb565b9150611311826112f6565b600082019050919050565b6000611327826112f9565b9150819050919050565b7f5472616e73666572206661696c65640000000000000000000000000000000000600082015250565b6000611367600f83610db5565b915061137282611331565b602082019050919050565b600060208201905081810360008301526113968161135a565b9050919050565b7f476f616c206d7573742062652076616c69640000000000000000000000000000600082015250565b60006113d3601283610db5565b91506113de8261139d565b602082019050919050565b60006020820190508181036000830152611402816113c6565b9050919050565b7f4475726174696f6e206d7573742062652076616c696400000000000000000000600082015250565b600061143f601683610db5565b915061144a82611409565b602082019050919050565b6000602082019050818103600083015261146e81611432565b9050919050565b7f4e487b7100000000000000000000000000000000000000000000000000000000600052601160045260246000fd5b60006114af82610c70565b91506114ba83610c70565b92508282019050808211156114d2576114d1611475565b5b92915050565b60008190508160005260206000209050919050565b60006020601f8301049050919050565b600082821b905092915050565b60006008830261153a7fffffffffffffffffffffffffffffffffffffffffffffffffffffffffffffffff826114fd565b61154486836114fd565b95508019841693508086168417925050509392505050565b6000819050919050565b600061158161157c61157784610c70565b61155c565b610c70565b9050919050565b6000819050919050565b61159b83611566565b6115af6115a782611588565b84845461150a565b825550505050565b600090565b6115c46115b7565b6115cf818484611592565b505050565b5b818110156115f3576115e86000826115bc565b6001810190506115d5565b5050565b601f82111561163857611609816114d8565b611612846114ed565b81016020851015611621578190505b61163561162d856114ed565b8301826115d4565b50505b505050565b600082821c905092915050565b600061165b6000198460080261163d565b1980831691505092915050565b6000611674838361164a565b9150826002028217905092915050565b61168d82610daa565b67ffffffffffffffff8111156116a6576116a5610edc565b5b6116b082546111e2565b6116bb8282856115f7565b600060209050601f8311600181146116ee57600084156116dc578287015190505b6116e68582611668565b86555061174e565b601f1984166116fc866114d8565b60005b82811015611724578489015182556001820191506020850194506020810190506116ff565b86831015611741578489015161173d601f89168261164a565b8355505b6001600288020188555050505b505050505050565b600061176182610c70565b91507fffffffffffffffffffffffffffffffffffffffffffffffffffffffffffffffff820361179357611792611475565b5b600182019050919050565b7f43616d706169676e2068617320656e6564656400000000000000000000000000600082015250565b60006117d4601383610db5565b91506117df8261179e565b602082019050919050565b60006020820190508181036000830152611803816117c7565b9050919050565b7f436f6e747269627574696f6e206d7573742062652076616c6964000000000000600082015250565b6000611840601a83610db5565b915061184b8261180a565b602082019050919050565b6000602082019050818103600083015261186f81611833565b9050919050565b600060408201905061188b6000830185610d44565b6118986020830184610d44565b9392505050565b7f4e487b7100000000000000000000000000000000000000000000000000000000600052603260045260246000fdfea2646970667358221220b35e25d3817199c9ebc6e59900afd9eae7c5df66cb33eea7e7abed413bc3aae864736f6c634300081c0033",
  "linkReferences": {},
  "deployedLinkReferences": {}
}