{
  "_format": "hh-sol-artifact-1",
  "contractName": "CrowdHive",
  "sourceName": "contracts/CrowdHive.sol",
  "abi": [
    {
      "anonymous": false,
      "inputs": [
        {
          "indexed": false,
          "internalType": "uint256",
          "name": "id",
          "type": "uint256"
        },
        {
          "indexed": true,
          "internalType": "address",
          "name": "contributor",
          "type": "address"
        },
        {
          "indexed": false,
          "internalType": "uint256",
          "name": "amount",
          "type": "uint256"
        }
      ],
      "name": "ContributionReceived",
      "type": "event"
    },
    {
      "inputs": [],
      "name": "campaignCount",
      "outputs": [
        {
          "internalType": "uint256",
          "name": "",
          "type": "uint256"
        }
      ],
      "stateMutability": "view",
      "type": "function"
    },
    {
      "inputs": [
        {
          "internalType": "uint256",
          "name": "",
          "type": "uint256"
        }
      ],
      "name": "campaigns",
      "outputs": [
        {
          "internalType": "address",
          "name": "creator",
          "type": "address"
        },
        {
          "internalType": "string",
          "name": "title",
          "type": "string"
        },
        {
          "internalType": "string",
          "name": "description",
          "type": "string"
        },
        {
          "internalType": "uint256",
          "name": "goal",
          "type": "uint256"
        },
        {
          "internalType": "uint256",
          "name": "deadline",
          "type": "uint256"
        },
        {
          "internalType": "uint256",
          "name": "amountCollected",
          "type": "uint256"
        },
        {
          "internalType": "bool",
          "name": "withdrawn",
          "type": "bool"
        }
      ],
      "stateMutability": "view",
      "type": "function"
    },
    {
      "inputs": [
        {
          "internalType": "uint256",
          "name": "_id",
          "type": "uint256"
        }
      ],
      "name": "contribute",
      "outputs": [],
      "stateMutability": "payable",
      "type": "function"
    },
    {
      "inputs": [
        {
          "internalType": "uint256",
          "name": "",
          "type": "uint256"
        },
        {
          "internalType": "address",
          "name": "",
          "type": "address"
        }
      ],
      "name": "contributons",
      "outputs": [
        {
          "internalType": "uint256",
          "name": "",
          "type": "uint256"
        }
      ],
      "stateMutability": "view",
      "type": "function"
    },
    {
      "inputs": [
        {
          "internalType": "string",
          "name": "_title",
          "type": "string"
        },
        {
          "internalType": "string",
          "name": "_description",
          "type": "string"
        },
        {
          "internalType": "uint256",
          "name": "_goal",
          "type": "uint256"
        },
        {
          "internalType": "uint256",
          "name": "_duration",
          "type": "uint256"
        }
      ],
      "name": "createCampaign",
      "outputs": [],
      "stateMutability": "nonpayable",
      "type": "function"
    },
    {
      "inputs": [
        {
          "internalType": "uint256",
          "name": "_id",
          "type": "uint256"
        }
      ],
      "name": "getCampaign",
      "outputs": [
        {
          "internalType": "address",
          "name": "creator",
          "type": "address"
        },
        {
          "internalType": "string",
          "name": "title",
          "type": "string"
        },
        {
          "internalType": "string",
          "name": "description",
          "type": "string"
        },
        {
          "internalType": "uint256",
          "name": "goal",
          "type": "uint256"
        },
        {
          "internalType": "uint256",
          "name": "deadline",
          "type": "uint256"
        },
        {
          "internalType": "uint256",
          "name": "amountCollected",
          "type": "uint256"
        },
        {
          "internalType": "bool",
          "name": "withdrawn",
          "type": "bool"
        }
      ],
      "stateMutability": "view",
      "type": "function"
    },
    {
      "inputs": [],
      "name": "getCampaignCount",
      "outputs": [
        {
          "internalType": "uint256",
          "name": "",
          "type": "uint256"
        }
      ],
      "stateMutability": "view",
      "type": "function"
    },
    {
      "inputs": [
        {
          "internalType": "address",
          "name": "_creator",
          "type": "address"
        }
      ],
      "name": "getCampaignsByCreator",
      "outputs": [
        {
          "internalType": "uint256[]",
          "name": "",
          "type": "uint256[]"
        }
      ],
      "stateMutability": "view",
      "type": "function"
    },
    {
      "inputs": [
        {
          "internalType": "uint256",
          "name": "_id",
          "type": "uint256"
        }
      ],
      "name": "withdrawFunds",
      "outputs": [],
      "stateMutability": "nonpayable",
      "type": "function"
    }
  ],
  "bytecode": "0x6080604052348015600f57600080fd5b506119038061001f6000396000f3fe6080604052600436106100865760003560e01c80636caa9218116100595780636caa9218146101775780637274e30d146101a2578063a318f269146101cd578063c1cbbca7146101f6578063d5b8d84a1461021257610086565b80630f6eabd71461008b578063141961bc146100c8578063155dd5ee1461010b5780635598f8cc14610134575b600080fd5b34801561009757600080fd5b506100b260048036038101906100ad9190610d03565b61024f565b6040516100bf9190610d52565b60405180910390f35b3480156100d457600080fd5b506100ef60048036038101906100ea9190610d6d565b610274565b6040516101029796959493929190610e54565b60405180910390f35b34801561011757600080fd5b50610132600480360381019061012d9190610d6d565b6103f3565b005b34801561014057600080fd5b5061015b60048036038101906101569190610d6d565b6105cb565b60405161016e9796959493929190610e54565b60405180910390f35b34801561018357600080fd5b5061018c61076c565b6040516101999190610d52565b60405180910390f35b3480156101ae57600080fd5b506101b7610776565b6040516101c49190610d52565b60405180910390f35b3480156101d957600080fd5b506101f460048036038101906101ef9190611006565b61077c565b005b610210600480360381019061020b9190610d6d565b610946565b005b34801561021e57600080fd5b50610239600480360381019061023491906110a5565b610abb565b6040516102469190611190565b60405180910390f35b6001602052816000526040600020602052806000526040600020600091509150505481565b60006020528060005260406000206000915090508060000160009054906101000a900473ffffffffffffffffffffffffffffffffffffffff16908060010180546102bd906111e1565b80601f01602080910402602001604051908101604052809291908181526020018280546102e9906111e1565b80156103365780601f1061030b57610100808354040283529160200191610336565b820191906000526020600020905b81548152906001019060200180831161031957829003601f168201915b50505050509080600201805461034b906111e1565b80601f0160208091040260200160405190810160405280929190818152602001828054610377906111e1565b80156103c45780601f10610399576101008083540402835291602001916103c4565b820191906000526020600020905b8154815290600101906020018083116103a757829003601f168201915b5050505050908060030154908060040154908060050154908060060160009054906101000a900460ff16905087565b600080600083815260200190815260200160002090508060000160009054906101000a900473ffffffffffffffffffffffffffffffffffffffff1673ffffffffffffffffffffffffffffffffffffffff163373ffffffffffffffffffffffffffffffffffffffff161461049b576040517f08c379a00000000000000000000000000000000000000000000000000000000081526004016104929061125e565b60405180910390fd5b60008160050154116104e2576040517f08c379a00000000000000000000000000000000000000000000000000000000081526004016104d9906112ca565b60405180910390fd5b6000816005015490506000826005018190555060008260000160009054906101000a900473ffffffffffffffffffffffffffffffffffffffff1673ffffffffffffffffffffffffffffffffffffffff168260405161053f9061131b565b60006040518083038185875af1925050503d806000811461057c576040519150601f19603f3d011682016040523d82523d6000602084013e610581565b606091505b50509050806105c5576040517f08c379a00000000000000000000000000000000000000000000000000000000081526004016105bc9061137c565b60405180910390fd5b50505050565b600060608060008060008060008060008a815260200190815260200160002090508060000160009054906101000a900473ffffffffffffffffffffffffffffffffffffffff1681600101826002018360030154846004015485600501548660060160009054906101000a900460ff16858054610646906111e1565b80601f0160208091040260200160405190810160405280929190818152602001828054610672906111e1565b80156106bf5780601f10610694576101008083540402835291602001916106bf565b820191906000526020600020905b8154815290600101906020018083116106a257829003601f168201915b505050505095508480546106d2906111e1565b80601f01602080910402602001604051908101604052809291908181526020018280546106fe906111e1565b801561074b5780601f106107205761010080835404028352916020019161074b565b820191906000526020600020905b81548152906001019060200180831161072e57829003601f168201915b50505050509450975097509750975097509750975050919395979092949650565b6000600254905090565b60025481565b600082116107bf576040517f08c379a00000000000000000000000000000000000000000000000000000000081526004016107b6906113e8565b60405180910390fd5b60008111610802576040517f08c379a00000000000000000000000000000000000000000000000000000000081526004016107f990611454565b60405180910390fd5b6000814261081091906114a3565b90506040518060e001604052803373ffffffffffffffffffffffffffffffffffffffff1681526020018681526020018581526020018481526020018281526020016000815260200160001515815250600080600254815260200190815260200160002060008201518160000160006101000a81548173ffffffffffffffffffffffffffffffffffffffff021916908373ffffffffffffffffffffffffffffffffffffffff16021790555060208201518160010190816108cf9190611683565b5060408201518160020190816108e59190611683565b50606082015181600301556080820151816004015560a0820151816005015560c08201518160060160006101000a81548160ff0219169083151502179055509050506002600081548092919061093a90611755565b91905055505050505050565b60008060008381526020019081526020016000209050806004015442106109a2576040517f08c379a0000000000000000000000000000000000000000000000000000000008152600401610999906117e9565b60405180910390fd5b600034116109e5576040517f08c379a00000000000000000000000000000000000000000000000000000000081526004016109dc90611855565b60405180910390fd5b348160050160008282546109f991906114a3565b92505081905550346001600084815260200190815260200160002060003373ffffffffffffffffffffffffffffffffffffffff1673ffffffffffffffffffffffffffffffffffffffff1681526020019081526020016000206000828254610a6091906114a3565b925050819055503373ffffffffffffffffffffffffffffffffffffffff167f865c884d49c8cecaef108efb20f7d282f26c0f9b0d24dd48e5592d4e02ec658d8334604051610aaf929190611875565b60405180910390a25050565b60606000805b600254811015610b4f578373ffffffffffffffffffffffffffffffffffffffff1660008083815260200190815260200160002060000160009054906101000a900473ffffffffffffffffffffffffffffffffffffffff1673ffffffffffffffffffffffffffffffffffffffff1603610b42578180610b3e90611755565b9250505b8080600101915050610ac1565b5060008167ffffffffffffffff811115610b6c57610b6b610edb565b5b604051908082528060200260200182016040528015610b9a5781602001602082028036833780820191505090505b5090506000805b600254811015610c4f578573ffffffffffffffffffffffffffffffffffffffff1660008083815260200190815260200160002060000160009054906101000a900473ffffffffffffffffffffffffffffffffffffffff1673ffffffffffffffffffffffffffffffffffffffff1603610c425780838381518110610c2757610c2661189e565b5b6020026020010181815250508180610c3e90611755565b9250505b8080600101915050610ba1565b50819350505050919050565b6000604051905090565b600080fd5b600080fd5b6000819050919050565b610c8281610c6f565b8114610c8d57600080fd5b50565b600081359050610c9f81610c79565b92915050565b600073ffffffffffffffffffffffffffffffffffffffff82169050919050565b6000610cd082610ca5565b9050919050565b610ce081610cc5565b8114610ceb57600080fd5b50565b600081359050610cfd81610cd7565b92915050565b60008060408385031215610d1a57610d19610c65565b5b6000610d2885828601610c90565b9250506020610d3985828601610cee565b9150509250929050565b610d4c81610c6f565b82525050565b6000602082019050610d676000830184610d43565b92915050565b600060208284031215610d8357610d82610c65565b5b6000610d9184828501610c90565b91505092915050565b610da381610cc5565b82525050565b600081519050919050565b600082825260208201905092915050565b60005b83811015610de3578082015181840152602081019050610dc8565b60008484015250505050565b6000601f19601f8301169050919050565b6000610e0b82610da9565b610e158185610db4565b9350610e25818560208601610dc5565b610e2e81610def565b840191505092915050565b60008115159050919050565b610e4e81610e39565b82525050565b600060e082019050610e69600083018a610d9a565b8181036020830152610e7b8189610e00565b90508181036040830152610e8f8188610e00565b9050610e9e6060830187610d43565b610eab6080830186610d43565b610eb860a0830185610d43565b610ec560c0830184610e45565b98975050505050505050565b600080fd5b600080fd5b7f4e487b7100000000000000000000000000000000000000000000000000000000600052604160045260246000fd5b610f1382610def565b810181811067ffffffffffffffff82111715610f3257610f31610edb565b5b80604052505050565b6000610f45610c5b565b9050610f518282610f0a565b919050565b600067ffffffffffffffff821115610f7157610f70610edb565b5b610f7a82610def565b9050602081019050919050565b82818337600083830152505050565b6000610fa9610fa484610f56565b610f3b565b905082815260208101848484011115610fc557610fc4610ed6565b5b610fd0848285610f87565b509392505050565b600082601f830112610fed57610fec610ed1565b5b8135610ffd848260208601610f96565b91505092915050565b600080600080608085870312156110205761101f610c65565b5b600085013567ffffffffffffffff81111561103e5761103d610c6a565b5b61104a87828801610fd8565b945050602085013567ffffffffffffffff81111561106b5761106a610c6a565b5b61107787828801610fd8565b935050604061108887828801610c90565b925050606061109987828801610c90565b91505092959194509250565b6000602082840312156110bb576110ba610c65565b5b60006110c984828501610cee565b91505092915050565b600081519050919050565b600082825260208201905092915050565b6000819050602082019050919050565b61110781610c6f565b82525050565b600061111983836110fe565b60208301905092915050565b6000602082019050919050565b600061113d826110d2565b61114781856110dd565b9350611152836110ee565b8060005b8381101561118357815161116a888261110d565b975061117583611125565b925050600181019050611156565b5085935050505092915050565b600060208201905081810360008301526111aa8184611132565b905092915050565b7f4e487b7100000000000000000000000000000000000000000000000000000000600052602260045260246000fd5b600060028204905060018216806111f957607f821691505b60208210810361120c5761120b6111b2565b5b50919050565b7f4f6e6c792063726561746f722063616e20776974686472617700000000000000600082015250565b6000611248601983610db4565b915061125382611212565b602082019050919050565b600060208201905081810360008301526112778161123b565b9050919050565b7f4e6f2066756e647320617661696c61626c650000000000000000000000000000600082015250565b60006112b4601283610db4565b91506112bf8261127e565b602082019050919050565b600060208201905081810360008301526112e3816112a7565b9050919050565b600081905092915050565b50565b60006113056000836112ea565b9150611310826112f5565b600082019050919050565b6000611326826112f8565b9150819050919050565b7f5472616e73666572206661696c65640000000000000000000000000000000000600082015250565b6000611366600f83610db4565b915061137182611330565b602082019050919050565b6000602082019050818103600083015261139581611359565b9050919050565b7f476f616c206d7573742062652076616c69640000000000000000000000000000600082015250565b60006113d2601283610db4565b91506113dd8261139c565b602082019050919050565b60006020820190508181036000830152611401816113c5565b9050919050565b7f4475726174696f6e206d7573742062652076616c696400000000000000000000600082015250565b600061143e601683610db4565b915061144982611408565b602082019050919050565b6000602082019050818103600083015261146d81611431565b9050919050565b7f4e487b7100000000000000000000000000000000000000000000000000000000600052601160045260246000fd5b60006114ae82610c6f565b91506114b983610c6f565b92508282019050808211156114d1576114d0611474565b5b92915050565b60008190508160005260206000209050919050565b60006020601f8301049050919050565b600082821b905092915050565b6000600883026115397fffffffffffffffffffffffffffffffffffffffffffffffffffffffffffffffff826114fc565b61154386836114fc565b95508019841693508086168417925050509392505050565b6000819050919050565b600061158061157b61157684610c6f565b61155b565b610c6f565b9050919050565b6000819050919050565b61159a83611565565b6115ae6115a682611587565b848454611509565b825550505050565b600090565b6115c36115b6565b6115ce818484611591565b505050565b5b818110156115f2576115e76000826115bb565b6001810190506115d4565b5050565b601f82111561163757611608816114d7565b611611846114ec565b81016020851015611620578190505b61163461162c856114ec565b8301826115d3565b50505b505050565b600082821c905092915050565b600061165a6000198460080261163c565b1980831691505092915050565b60006116738383611649565b9150826002028217905092915050565b61168c82610da9565b67ffffffffffffffff8111156116a5576116a4610edb565b5b6116af82546111e1565b6116ba8282856115f6565b600060209050601f8311600181146116ed57600084156116db578287015190505b6116e58582611667565b86555061174d565b601f1984166116fb866114d7565b60005b82811015611723578489015182556001820191506020850194506020810190506116fe565b86831015611740578489015161173c601f891682611649565b8355505b6001600288020188555050505b505050505050565b600061176082610c6f565b91507fffffffffffffffffffffffffffffffffffffffffffffffffffffffffffffffff820361179257611791611474565b5b600182019050919050565b7f43616d706169676e2068617320656e6564656400000000000000000000000000600082015250565b60006117d3601383610db4565b91506117de8261179d565b602082019050919050565b60006020820190508181036000830152611802816117c6565b9050919050565b7f436f6e747269627574696f6e206d7573742062652076616c6964000000000000600082015250565b600061183f601a83610db4565b915061184a82611809565b602082019050919050565b6000602082019050818103600083015261186e81611832565b9050919050565b600060408201905061188a6000830185610d43565b6118976020830184610d43565b9392505050565b7f4e487b7100000000000000000000000000000000000000000000000000000000600052603260045260246000fdfea2646970667358221220693b4bb29447ebcdf7ab9041e1b6d2f51fc9c2376fa7536b28baf1bba53ef01264736f6c634300081c0033",
  "linkReferences": {},
  "deployedLinkReferences": {}
}